{
  "_format": "hh-sol-artifact-1",
  "contractName": "InstaUltima",
  "sourceName": "contracts/InstaUltima.sol",
  "abi": [
    {
      "anonymous": false,
      "inputs": [
        {
          "indexed": true,
          "internalType": "address",
          "name": "previousOwner",
          "type": "address"
        },
        {
          "indexed": true,
          "internalType": "address",
          "name": "newOwner",
          "type": "address"
        }
      ],
      "name": "OwnershipTransferred",
      "type": "event"
    },
    {
      "inputs": [
        {
          "internalType": "address[]",
          "name": "_routers",
          "type": "address[]"
        }
      ],
      "name": "addRouters",
      "outputs": [],
      "stateMutability": "nonpayable",
      "type": "function"
    },
    {
      "inputs": [
        {
          "internalType": "address[]",
          "name": "_stables",
          "type": "address[]"
        }
      ],
      "name": "addStables",
      "outputs": [],
      "stateMutability": "nonpayable",
      "type": "function"
    },
    {
      "inputs": [
        {
          "internalType": "address[]",
          "name": "_tokens",
          "type": "address[]"
        }
      ],
      "name": "addTokens",
      "outputs": [],
      "stateMutability": "nonpayable",
      "type": "function"
    },
    {
      "inputs": [
        {
          "internalType": "address",
          "name": "_router1",
          "type": "address"
        },
        {
          "internalType": "address",
          "name": "_router2",
          "type": "address"
        },
        {
          "internalType": "address",
          "name": "_token1",
          "type": "address"
        },
        {
          "internalType": "address",
          "name": "_token2",
          "type": "address"
        },
        {
          "internalType": "uint256",
          "name": "_amount",
          "type": "uint256"
        }
      ],
      "name": "dualDexTrade",
      "outputs": [],
      "stateMutability": "nonpayable",
      "type": "function"
    },
    {
      "inputs": [
        {
          "internalType": "address",
          "name": "_router1",
          "type": "address"
        },
        {
          "internalType": "address",
          "name": "_router2",
          "type": "address"
        },
        {
          "internalType": "address",
          "name": "_token1",
          "type": "address"
        },
        {
          "internalType": "address",
          "name": "_token2",
          "type": "address"
        },
        {
          "internalType": "uint256",
          "name": "_amount",
          "type": "uint256"
        }
      ],
      "name": "estimateDualDexTrade",
      "outputs": [
        {
          "internalType": "uint256",
          "name": "",
          "type": "uint256"
        }
      ],
      "stateMutability": "view",
      "type": "function"
    },
    {
      "inputs": [
        {
          "internalType": "address",
          "name": "router",
          "type": "address"
        },
        {
          "internalType": "address",
          "name": "_tokenIn",
          "type": "address"
        },
        {
          "internalType": "address",
          "name": "_tokenOut",
          "type": "address"
        },
        {
          "internalType": "uint256",
          "name": "_amount",
          "type": "uint256"
        }
      ],
      "name": "getAmountOutMin",
      "outputs": [
        {
          "internalType": "uint256",
          "name": "",
          "type": "uint256"
        }
      ],
      "stateMutability": "view",
      "type": "function"
    },
    {
      "inputs": [
        {
          "internalType": "address",
          "name": "_tokenContractAddress",
          "type": "address"
        }
      ],
      "name": "getBalance",
      "outputs": [
        {
          "internalType": "uint256",
          "name": "",
          "type": "uint256"
        }
      ],
      "stateMutability": "view",
      "type": "function"
    },
    {
      "inputs": [
        {
          "internalType": "address",
          "name": "_router",
          "type": "address"
        },
        {
          "internalType": "address",
          "name": "_baseAsset",
          "type": "address"
        },
        {
          "internalType": "uint256",
          "name": "_amount",
          "type": "uint256"
        }
      ],
      "name": "instaSearch",
      "outputs": [
        {
          "internalType": "uint256",
          "name": "",
          "type": "uint256"
        },
        {
          "internalType": "address",
          "name": "",
          "type": "address"
        },
        {
          "internalType": "address",
          "name": "",
          "type": "address"
        },
        {
          "internalType": "address",
          "name": "",
          "type": "address"
        }
      ],
      "stateMutability": "view",
      "type": "function"
    },
    {
      "inputs": [
        {
          "internalType": "address",
          "name": "_router1",
          "type": "address"
        },
        {
          "internalType": "address",
          "name": "_token1",
          "type": "address"
        },
        {
          "internalType": "address",
          "name": "_token2",
          "type": "address"
        },
        {
          "internalType": "address",
          "name": "_token3",
          "type": "address"
        },
        {
          "internalType": "address",
          "name": "_token4",
          "type": "address"
        },
        {
          "internalType": "uint256",
          "name": "_amount",
          "type": "uint256"
        }
      ],
      "name": "instaTrade",
      "outputs": [],
      "stateMutability": "nonpayable",
      "type": "function"
    },
    {
      "inputs": [],
      "name": "owner",
      "outputs": [
        {
          "internalType": "address",
          "name": "",
          "type": "address"
        }
      ],
      "stateMutability": "view",
      "type": "function"
    },
    {
      "inputs": [],
      "name": "recoverEth",
      "outputs": [],
      "stateMutability": "nonpayable",
      "type": "function"
    },
    {
      "inputs": [
        {
          "internalType": "address",
          "name": "tokenAddress",
          "type": "address"
        }
      ],
      "name": "recoverTokens",
      "outputs": [],
      "stateMutability": "nonpayable",
      "type": "function"
    },
    {
      "inputs": [],
      "name": "renounceOwnership",
      "outputs": [],
      "stateMutability": "nonpayable",
      "type": "function"
    },
    {
      "inputs": [
        {
          "internalType": "uint256",
          "name": "",
          "type": "uint256"
        }
      ],
      "name": "routers",
      "outputs": [
        {
          "internalType": "address",
          "name": "",
          "type": "address"
        }
      ],
      "stateMutability": "view",
      "type": "function"
    },
    {
      "inputs": [
        {
          "internalType": "uint256",
          "name": "",
          "type": "uint256"
        }
      ],
      "name": "stables",
      "outputs": [
        {
          "internalType": "address",
          "name": "",
          "type": "address"
        }
      ],
      "stateMutability": "view",
      "type": "function"
    },
    {
      "inputs": [
        {
          "internalType": "uint256",
          "name": "",
          "type": "uint256"
        }
      ],
      "name": "tokens",
      "outputs": [
        {
          "internalType": "address",
          "name": "",
          "type": "address"
        }
      ],
      "stateMutability": "view",
      "type": "function"
    },
    {
      "inputs": [
        {
          "internalType": "address",
          "name": "newOwner",
          "type": "address"
        }
      ],
      "name": "transferOwnership",
      "outputs": [],
      "stateMutability": "nonpayable",
      "type": "function"
    }
  ],
  "bytecode": "0x60806040523480156200001157600080fd5b5062000032620000266200003860201b60201c565b6200004060201b60201c565b62000104565b600033905090565b60008060009054906101000a900473ffffffffffffffffffffffffffffffffffffffff169050816000806101000a81548173ffffffffffffffffffffffffffffffffffffffff021916908373ffffffffffffffffffffffffffffffffffffffff1602179055508173ffffffffffffffffffffffffffffffffffffffff168173ffffffffffffffffffffffffffffffffffffffff167f8be0079c531659141344cd1fd0a4f28419497f9722a3daafe3b4186f6b6457e060405160405180910390a35050565b61279b80620001146000396000f3fe608060405234801561001057600080fd5b506004361061010b5760003560e01c8063542c8f35116100a2578063bcdb446b11610071578063bcdb446b146102b4578063c58f9ce4146102be578063dece9591146102da578063f2fde38b1461030d578063f8b2cb4f146103295761010b565b8063542c8f3514610240578063643aadb71461025c578063715018a61461028c5780638da5cb5b146102965761010b565b80634ae05c7d116100de5780634ae05c7d146101a85780634b01f85e146101c45780634e9c1118146101e05780634f64b2be146102105761010b565b8063068e7ca11461011057806316114acd146101405780631aa513181461015c57806343cf6f2414610178575b600080fd5b61012a60048036038101906101259190611ed4565b610359565b60405161013791906122e5565b60405180910390f35b61015a60048036038101906101559190611e1a565b610388565b005b61017660048036038101906101719190611ed4565b610523565b005b610192600480360381019061018d9190611f4f565b610849565b60405161019f91906122e5565b60405180910390f35b6101c260048036038101906101bd9190612009565b610a04565b005b6101de60048036038101906101d99190612009565b610b30565b005b6101fa60048036038101906101f591906120cc565b610c5c565b6040516102079190612241565b60405180910390f35b61022a600480360381019061022591906120cc565b610c9b565b6040516102379190612241565b60405180910390f35b61025a60048036038101906102559190611e47565b610cda565b005b610276600480360381019061027191906120cc565b61125b565b6040516102839190612241565b60405180910390f35b61029461129a565b005b61029e611322565b6040516102ab9190612241565b60405180910390f35b6102bc61134b565b005b6102d860048036038101906102d39190612009565b611410565b005b6102f460048036038101906102ef9190611fb6565b61153c565b6040516103049493929190612300565b60405180910390f35b61032760048036038101906103229190611e1a565b611849565b005b610343600480360381019061033e9190611e1a565b611941565b60405161035091906122e5565b60405180910390f35b60008061036887868686610849565b9050600061037887868885610849565b9050809250505095945050505050565b6103906119d8565b73ffffffffffffffffffffffffffffffffffffffff166103ae611322565b73ffffffffffffffffffffffffffffffffffffffff1614610404576040517f08c379a00000000000000000000000000000000000000000000000000000000081526004016103fb906122c5565b60405180910390fd5b60008190508073ffffffffffffffffffffffffffffffffffffffff1663a9059cbb338373ffffffffffffffffffffffffffffffffffffffff166370a08231306040518263ffffffff1660e01b815260040161045f9190612241565b60206040518083038186803b15801561047757600080fd5b505afa15801561048b573d6000803e3d6000fd5b505050506040513d601f19601f820116820180604052508101906104af91906120f9565b6040518363ffffffff1660e01b81526004016104cc92919061225c565b602060405180830381600087803b1580156104e657600080fd5b505af11580156104fa573d6000803e3d6000fd5b505050506040513d601f19601f8201168201806040525081019061051e919061209f565b505050565b61052b6119d8565b73ffffffffffffffffffffffffffffffffffffffff16610549611322565b73ffffffffffffffffffffffffffffffffffffffff161461059f576040517f08c379a0000000000000000000000000000000000000000000000000000000008152600401610596906122c5565b60405180910390fd5b60008373ffffffffffffffffffffffffffffffffffffffff166370a08231306040518263ffffffff1660e01b81526004016105da9190612241565b60206040518083038186803b1580156105f257600080fd5b505afa158015610606573d6000803e3d6000fd5b505050506040513d601f19601f8201168201806040525081019061062a91906120f9565b905060008373ffffffffffffffffffffffffffffffffffffffff166370a08231306040518263ffffffff1660e01b81526004016106679190612241565b60206040518083038186803b15801561067f57600080fd5b505afa158015610693573d6000803e3d6000fd5b505050506040513d601f19601f820116820180604052508101906106b791906120f9565b90506106c5878686866119e0565b60008473ffffffffffffffffffffffffffffffffffffffff166370a08231306040518263ffffffff1660e01b81526004016107009190612241565b60206040518083038186803b15801561071857600080fd5b505afa15801561072c573d6000803e3d6000fd5b505050506040513d601f19601f8201168201806040525081019061075091906120f9565b90506000828261076091906124c0565b905061076e888789846119e0565b60008773ffffffffffffffffffffffffffffffffffffffff166370a08231306040518263ffffffff1660e01b81526004016107a99190612241565b60206040518083038186803b1580156107c157600080fd5b505afa1580156107d5573d6000803e3d6000fd5b505050506040513d601f19601f820116820180604052508101906107f991906120f9565b905084811161083d576040517f08c379a0000000000000000000000000000000000000000000000000000000008152600401610834906122a5565b60405180910390fd5b50505050505050505050565b60006060600267ffffffffffffffff81111561086857610867612626565b5b6040519080825280602002602001820160405280156108965781602001602082028036833780820191505090505b50905084816000815181106108ae576108ad6125f7565b5b602002602001019073ffffffffffffffffffffffffffffffffffffffff16908173ffffffffffffffffffffffffffffffffffffffff168152505083816001815181106108fd576108fc6125f7565b5b602002602001019073ffffffffffffffffffffffffffffffffffffffff16908173ffffffffffffffffffffffffffffffffffffffff168152505060008673ffffffffffffffffffffffffffffffffffffffff1663d06ca61f85846040518363ffffffff1660e01b8152600401610974929190612345565b60006040518083038186803b15801561098c57600080fd5b505afa9250505080156109c257506040513d6000823e3d601f19601f820116820180604052508101906109bf9190612056565b60015b6109cb576109f7565b80600184516109da91906124c0565b815181106109eb576109ea6125f7565b5b60200260200101519150505b8092505050949350505050565b610a0c6119d8565b73ffffffffffffffffffffffffffffffffffffffff16610a2a611322565b73ffffffffffffffffffffffffffffffffffffffff1614610a80576040517f08c379a0000000000000000000000000000000000000000000000000000000008152600401610a77906122c5565b60405180910390fd5b60005b82829050811015610b2b576002838383818110610aa357610aa26125f7565b5b9050602002016020810190610ab89190611e1a565b9080600181540180825580915050600190039060005260206000200160009091909190916101000a81548173ffffffffffffffffffffffffffffffffffffffff021916908373ffffffffffffffffffffffffffffffffffffffff1602179055508080610b239061257f565b915050610a83565b505050565b610b386119d8565b73ffffffffffffffffffffffffffffffffffffffff16610b56611322565b73ffffffffffffffffffffffffffffffffffffffff1614610bac576040517f08c379a0000000000000000000000000000000000000000000000000000000008152600401610ba3906122c5565b60405180910390fd5b60005b82829050811015610c57576001838383818110610bcf57610bce6125f7565b5b9050602002016020810190610be49190611e1a565b9080600181540180825580915050600190039060005260206000200160009091909190916101000a81548173ffffffffffffffffffffffffffffffffffffffff021916908373ffffffffffffffffffffffffffffffffffffffff1602179055508080610c4f9061257f565b915050610baf565b505050565b60018181548110610c6c57600080fd5b906000526020600020016000915054906101000a900473ffffffffffffffffffffffffffffffffffffffff1681565b60028181548110610cab57600080fd5b906000526020600020016000915054906101000a900473ffffffffffffffffffffffffffffffffffffffff1681565b610ce26119d8565b73ffffffffffffffffffffffffffffffffffffffff16610d00611322565b73ffffffffffffffffffffffffffffffffffffffff1614610d56576040517f08c379a0000000000000000000000000000000000000000000000000000000008152600401610d4d906122c5565b60405180910390fd5b60008573ffffffffffffffffffffffffffffffffffffffff166370a08231306040518263ffffffff1660e01b8152600401610d919190612241565b60206040518083038186803b158015610da957600080fd5b505afa158015610dbd573d6000803e3d6000fd5b505050506040513d601f19601f82011682018060405250810190610de191906120f9565b905060008573ffffffffffffffffffffffffffffffffffffffff166370a08231306040518263ffffffff1660e01b8152600401610e1e9190612241565b60206040518083038186803b158015610e3657600080fd5b505afa158015610e4a573d6000803e3d6000fd5b505050506040513d601f19601f82011682018060405250810190610e6e91906120f9565b905060008573ffffffffffffffffffffffffffffffffffffffff166370a08231306040518263ffffffff1660e01b8152600401610eab9190612241565b60206040518083038186803b158015610ec357600080fd5b505afa158015610ed7573d6000803e3d6000fd5b505050506040513d601f19601f82011682018060405250810190610efb91906120f9565b905060008573ffffffffffffffffffffffffffffffffffffffff166370a08231306040518263ffffffff1660e01b8152600401610f389190612241565b60206040518083038186803b158015610f5057600080fd5b505afa158015610f64573d6000803e3d6000fd5b505050506040513d601f19601f82011682018060405250810190610f8891906120f9565b9050610f968a8a8a886119e0565b6000838973ffffffffffffffffffffffffffffffffffffffff166370a08231306040518263ffffffff1660e01b8152600401610fd29190612241565b60206040518083038186803b158015610fea57600080fd5b505afa158015610ffe573d6000803e3d6000fd5b505050506040513d601f19601f8201168201806040525081019061102291906120f9565b61102c91906124c0565b905061103a8b8a8a846119e0565b6000838973ffffffffffffffffffffffffffffffffffffffff166370a08231306040518263ffffffff1660e01b81526004016110769190612241565b60206040518083038186803b15801561108e57600080fd5b505afa1580156110a2573d6000803e3d6000fd5b505050506040513d601f19601f820116820180604052508101906110c691906120f9565b6110d091906124c0565b90506110de8c8a8a846119e0565b6000838973ffffffffffffffffffffffffffffffffffffffff166370a08231306040518263ffffffff1660e01b815260040161111a9190612241565b60206040518083038186803b15801561113257600080fd5b505afa158015611146573d6000803e3d6000fd5b505050506040513d601f19601f8201168201806040525081019061116a91906120f9565b61117491906124c0565b90506111828d8a8e846119e0565b868c73ffffffffffffffffffffffffffffffffffffffff166370a08231306040518263ffffffff1660e01b81526004016111bc9190612241565b60206040518083038186803b1580156111d457600080fd5b505afa1580156111e8573d6000803e3d6000fd5b505050506040513d601f19601f8201168201806040525081019061120c91906120f9565b1161124c576040517f08c379a0000000000000000000000000000000000000000000000000000000008152600401611243906122a5565b60405180910390fd5b50505050505050505050505050565b6003818154811061126b57600080fd5b906000526020600020016000915054906101000a900473ffffffffffffffffffffffffffffffffffffffff1681565b6112a26119d8565b73ffffffffffffffffffffffffffffffffffffffff166112c0611322565b73ffffffffffffffffffffffffffffffffffffffff1614611316576040517f08c379a000000000000000000000000000000000000000000000000000000000815260040161130d906122c5565b60405180910390fd5b6113206000611c0e565b565b60008060009054906101000a900473ffffffffffffffffffffffffffffffffffffffff16905090565b6113536119d8565b73ffffffffffffffffffffffffffffffffffffffff16611371611322565b73ffffffffffffffffffffffffffffffffffffffff16146113c7576040517f08c379a00000000000000000000000000000000000000000000000000000000081526004016113be906122c5565b60405180910390fd5b3373ffffffffffffffffffffffffffffffffffffffff166108fc479081150290604051600060405180830381858888f1935050505015801561140d573d6000803e3d6000fd5b50565b6114186119d8565b73ffffffffffffffffffffffffffffffffffffffff16611436611322565b73ffffffffffffffffffffffffffffffffffffffff161461148c576040517f08c379a0000000000000000000000000000000000000000000000000000000008152600401611483906122c5565b60405180910390fd5b60005b828290508110156115375760038383838181106114af576114ae6125f7565b5b90506020020160208101906114c49190611e1a565b9080600181540180825580915050600190039060005260206000200160009091909190916101000a81548173ffffffffffffffffffffffffffffffffffffffff021916908373ffffffffffffffffffffffffffffffffffffffff160217905550808061152f9061257f565b91505061148f565b505050565b60008060008060008060008060005b60028054905081101561182f5760005b60038054905081101561181b5760005b600280549050811015611807576115c28e8e60028681548110611591576115906125f7565b5b9060005260206000200160009054906101000a900473ffffffffffffffffffffffffffffffffffffffff168f610849565b965061164c8e600285815481106115dc576115db6125f7565b5b9060005260206000200160009054906101000a900473ffffffffffffffffffffffffffffffffffffffff166003858154811061161b5761161a6125f7565b5b9060005260206000200160009054906101000a900473ffffffffffffffffffffffffffffffffffffffff168a610849565b96506116d68e60038481548110611666576116656125f7565b5b9060005260206000200160009054906101000a900473ffffffffffffffffffffffffffffffffffffffff16600284815481106116a5576116a46125f7565b5b9060005260206000200160009054906101000a900473ffffffffffffffffffffffffffffffffffffffff168a610849565b96506117228e600283815481106116f0576116ef6125f7565b5b9060005260206000200160009054906101000a900473ffffffffffffffffffffffffffffffffffffffff168f8a610849565b96508b8711156117f457600283815481106117405761173f6125f7565b5b9060005260206000200160009054906101000a900473ffffffffffffffffffffffffffffffffffffffff16955060028281548110611781576117806125f7565b5b9060005260206000200160009054906101000a900473ffffffffffffffffffffffffffffffffffffffff169450600281815481106117c2576117c16125f7565b5b9060005260206000200160009054906101000a900473ffffffffffffffffffffffffffffffffffffffff169350611807565b80806117ff9061257f565b91505061156b565b5080806118139061257f565b91505061155b565b5080806118279061257f565b91505061154b565b508383838397509750975097505050505093509350935093565b6118516119d8565b73ffffffffffffffffffffffffffffffffffffffff1661186f611322565b73ffffffffffffffffffffffffffffffffffffffff16146118c5576040517f08c379a00000000000000000000000000000000000000000000000000000000081526004016118bc906122c5565b60405180910390fd5b600073ffffffffffffffffffffffffffffffffffffffff168173ffffffffffffffffffffffffffffffffffffffff161415611935576040517f08c379a000000000000000000000000000000000000000000000000000000000815260040161192c90612285565b60405180910390fd5b61193e81611c0e565b50565b6000808273ffffffffffffffffffffffffffffffffffffffff166370a08231306040518263ffffffff1660e01b815260040161197d9190612241565b60206040518083038186803b15801561199557600080fd5b505afa1580156119a9573d6000803e3d6000fd5b505050506040513d601f19601f820116820180604052508101906119cd91906120f9565b905080915050919050565b600033905090565b8273ffffffffffffffffffffffffffffffffffffffff1663095ea7b385836040518363ffffffff1660e01b8152600401611a1b92919061225c565b602060405180830381600087803b158015611a3557600080fd5b505af1158015611a49573d6000803e3d6000fd5b505050506040513d601f19601f82011682018060405250810190611a6d919061209f565b506060600267ffffffffffffffff811115611a8b57611a8a612626565b5b604051908082528060200260200182016040528015611ab95781602001602082028036833780820191505090505b5090508381600081518110611ad157611ad06125f7565b5b602002602001019073ffffffffffffffffffffffffffffffffffffffff16908173ffffffffffffffffffffffffffffffffffffffff16815250508281600181518110611b2057611b1f6125f7565b5b602002602001019073ffffffffffffffffffffffffffffffffffffffff16908173ffffffffffffffffffffffffffffffffffffffff1681525050600061012c42611b6a919061246a565b90508573ffffffffffffffffffffffffffffffffffffffff166338ed17398460018530866040518663ffffffff1660e01b8152600401611bae959493929190612375565b600060405180830381600087803b158015611bc857600080fd5b505af1158015611bdc573d6000803e3d6000fd5b505050506040513d6000823e3d601f19601f82011682018060405250810190611c059190612056565b50505050505050565b60008060009054906101000a900473ffffffffffffffffffffffffffffffffffffffff169050816000806101000a81548173ffffffffffffffffffffffffffffffffffffffff021916908373ffffffffffffffffffffffffffffffffffffffff1602179055508173ffffffffffffffffffffffffffffffffffffffff168173ffffffffffffffffffffffffffffffffffffffff167f8be0079c531659141344cd1fd0a4f28419497f9722a3daafe3b4186f6b6457e060405160405180910390a35050565b6000611ce5611ce0846123f4565b6123cf565b90508083825260208201905082856020860282011115611d0857611d0761265f565b5b60005b85811015611d385781611d1e8882611e05565b845260208401935060208301925050600181019050611d0b565b5050509392505050565b600081359050611d5181612720565b92915050565b60008083601f840112611d6d57611d6c61265a565b5b8235905067ffffffffffffffff811115611d8a57611d89612655565b5b602083019150836020820283011115611da657611da561265f565b5b9250929050565b600082601f830112611dc257611dc161265a565b5b8151611dd2848260208601611cd2565b91505092915050565b600081519050611dea81612737565b92915050565b600081359050611dff8161274e565b92915050565b600081519050611e148161274e565b92915050565b600060208284031215611e3057611e2f612669565b5b6000611e3e84828501611d42565b91505092915050565b60008060008060008060c08789031215611e6457611e63612669565b5b6000611e7289828a01611d42565b9650506020611e8389828a01611d42565b9550506040611e9489828a01611d42565b9450506060611ea589828a01611d42565b9350506080611eb689828a01611d42565b92505060a0611ec789828a01611df0565b9150509295509295509295565b600080600080600060a08688031215611ef057611eef612669565b5b6000611efe88828901611d42565b9550506020611f0f88828901611d42565b9450506040611f2088828901611d42565b9350506060611f3188828901611d42565b9250506080611f4288828901611df0565b9150509295509295909350565b60008060008060808587031215611f6957611f68612669565b5b6000611f7787828801611d42565b9450506020611f8887828801611d42565b9350506040611f9987828801611d42565b9250506060611faa87828801611df0565b91505092959194509250565b600080600060608486031215611fcf57611fce612669565b5b6000611fdd86828701611d42565b9350506020611fee86828701611d42565b9250506040611fff86828701611df0565b9150509250925092565b600080602083850312156120205761201f612669565b5b600083013567ffffffffffffffff81111561203e5761203d612664565b5b61204a85828601611d57565b92509250509250929050565b60006020828403121561206c5761206b612669565b5b600082015167ffffffffffffffff81111561208a57612089612664565b5b61209684828501611dad565b91505092915050565b6000602082840312156120b5576120b4612669565b5b60006120c384828501611ddb565b91505092915050565b6000602082840312156120e2576120e1612669565b5b60006120f084828501611df0565b91505092915050565b60006020828403121561210f5761210e612669565b5b600061211d84828501611e05565b91505092915050565b6000612132838361213e565b60208301905092915050565b612147816124f4565b82525050565b612156816124f4565b82525050565b600061216782612430565b6121718185612448565b935061217c83612420565b8060005b838110156121ad5781516121948882612126565b975061219f8361243b565b925050600181019050612180565b5085935050505092915050565b6121c38161253c565b82525050565b60006121d6602683612459565b91506121e18261267f565b604082019050919050565b60006121f9601e83612459565b9150612204826126ce565b602082019050919050565b600061221c602083612459565b9150612227826126f7565b602082019050919050565b61223b81612532565b82525050565b6000602082019050612256600083018461214d565b92915050565b6000604082019050612271600083018561214d565b61227e6020830184612232565b9392505050565b6000602082019050818103600083015261229e816121c9565b9050919050565b600060208201905081810360008301526122be816121ec565b9050919050565b600060208201905081810360008301526122de8161220f565b9050919050565b60006020820190506122fa6000830184612232565b92915050565b60006080820190506123156000830187612232565b612322602083018661214d565b61232f604083018561214d565b61233c606083018461214d565b95945050505050565b600060408201905061235a6000830185612232565b818103602083015261236c818461215c565b90509392505050565b600060a08201905061238a6000830188612232565b61239760208301876121ba565b81810360408301526123a9818661215c565b90506123b8606083018561214d565b6123c56080830184612232565b9695505050505050565b60006123d96123ea565b90506123e5828261254e565b919050565b6000604051905090565b600067ffffffffffffffff82111561240f5761240e612626565b5b602082029050602081019050919050565b6000819050602082019050919050565b600081519050919050565b6000602082019050919050565b600082825260208201905092915050565b600082825260208201905092915050565b600061247582612532565b915061248083612532565b9250827fffffffffffffffffffffffffffffffffffffffffffffffffffffffffffffffff038211156124b5576124b46125c8565b5b828201905092915050565b60006124cb82612532565b91506124d683612532565b9250828210156124e9576124e86125c8565b5b828203905092915050565b60006124ff82612512565b9050919050565b60008115159050919050565b600073ffffffffffffffffffffffffffffffffffffffff82169050919050565b6000819050919050565b600061254782612532565b9050919050565b6125578261266e565b810181811067ffffffffffffffff8211171561257657612575612626565b5b80604052505050565b600061258a82612532565b91507fffffffffffffffffffffffffffffffffffffffffffffffffffffffffffffffff8214156125bd576125bc6125c8565b5b600182019050919050565b7f4e487b7100000000000000000000000000000000000000000000000000000000600052601160045260246000fd5b7f4e487b7100000000000000000000000000000000000000000000000000000000600052603260045260246000fd5b7f4e487b7100000000000000000000000000000000000000000000000000000000600052604160045260246000fd5b600080fd5b600080fd5b600080fd5b600080fd5b600080fd5b6000601f19601f8301169050919050565b7f4f776e61626c653a206e6577206f776e657220697320746865207a65726f206160008201527f6464726573730000000000000000000000000000000000000000000000000000602082015250565b7f54726164652052657665727465642c204e6f2050726f666974204d6164650000600082015250565b7f4f776e61626c653a2063616c6c6572206973206e6f7420746865206f776e6572600082015250565b612729816124f4565b811461273457600080fd5b50565b61274081612506565b811461274b57600080fd5b50565b61275781612532565b811461276257600080fd5b5056fea2646970667358221220d2f72f4a36ae8e5136d77d099f67ed6be10e371a2503db25fe700cc35cefd70564736f6c63430008070033",
  "linkReferences": {},
  "deployedLinkReferences": {}
}