{
  "_format": "hh-sol-artifact-1",
  "contractName": "Ultima",
  "sourceName": "contracts/Ultima.sol",
  "abi": [
    {
      "anonymous": false,
      "inputs": [
        {
          "indexed": true,
          "internalType": "address",
          "name": "previousOwner",
          "type": "address"
        },
        {
          "indexed": true,
          "internalType": "address",
          "name": "newOwner",
          "type": "address"
        }
      ],
      "name": "OwnershipTransferred",
      "type": "event"
    },
    {
      "inputs": [
        {
          "internalType": "address",
          "name": "_router1",
          "type": "address"
        },
        {
          "internalType": "address",
          "name": "_router2",
          "type": "address"
        },
        {
          "internalType": "address",
          "name": "_token1",
          "type": "address"
        },
        {
          "internalType": "address",
          "name": "_token2",
          "type": "address"
        },
        {
          "internalType": "uint256",
          "name": "_amount",
          "type": "uint256"
        }
      ],
      "name": "dualDexTrade",
      "outputs": [],
      "stateMutability": "nonpayable",
      "type": "function"
    },
    {
      "inputs": [
        {
          "internalType": "address",
          "name": "_router1",
          "type": "address"
        },
        {
          "internalType": "address",
          "name": "_router2",
          "type": "address"
        },
        {
          "internalType": "address",
          "name": "_token1",
          "type": "address"
        },
        {
          "internalType": "address",
          "name": "_token2",
          "type": "address"
        },
        {
          "internalType": "uint256",
          "name": "_amount",
          "type": "uint256"
        }
      ],
      "name": "estimateDualDexTrade",
      "outputs": [
        {
          "internalType": "uint256",
          "name": "",
          "type": "uint256"
        }
      ],
      "stateMutability": "view",
      "type": "function"
    },
    {
      "inputs": [
        {
          "internalType": "address",
          "name": "router",
          "type": "address"
        },
        {
          "internalType": "address",
          "name": "_tokenIn",
          "type": "address"
        },
        {
          "internalType": "address",
          "name": "_tokenOut",
          "type": "address"
        },
        {
          "internalType": "uint256",
          "name": "_amount",
          "type": "uint256"
        }
      ],
      "name": "getAmountOutMin",
      "outputs": [
        {
          "internalType": "uint256",
          "name": "",
          "type": "uint256"
        }
      ],
      "stateMutability": "view",
      "type": "function"
    },
    {
      "inputs": [
        {
          "internalType": "address",
          "name": "_tokenContractAddress",
          "type": "address"
        }
      ],
      "name": "getBalance",
      "outputs": [
        {
          "internalType": "uint256",
          "name": "",
          "type": "uint256"
        }
      ],
      "stateMutability": "view",
      "type": "function"
    },
    {
      "inputs": [],
      "name": "owner",
      "outputs": [
        {
          "internalType": "address",
          "name": "",
          "type": "address"
        }
      ],
      "stateMutability": "view",
      "type": "function"
    },
    {
      "inputs": [],
      "name": "recoverEth",
      "outputs": [],
      "stateMutability": "nonpayable",
      "type": "function"
    },
    {
      "inputs": [
        {
          "internalType": "address",
          "name": "tokenAddress",
          "type": "address"
        }
      ],
      "name": "recoverTokens",
      "outputs": [],
      "stateMutability": "nonpayable",
      "type": "function"
    },
    {
      "inputs": [],
      "name": "renounceOwnership",
      "outputs": [],
      "stateMutability": "nonpayable",
      "type": "function"
    },
    {
      "inputs": [
        {
          "internalType": "address",
          "name": "newOwner",
          "type": "address"
        }
      ],
      "name": "transferOwnership",
      "outputs": [],
      "stateMutability": "nonpayable",
      "type": "function"
    }
  ],
  "bytecode": "0x608060405234801561001057600080fd5b5061002d61002261003260201b60201c565b61003a60201b60201c565b6100fe565b600033905090565b60008060009054906101000a900473ffffffffffffffffffffffffffffffffffffffff169050816000806101000a81548173ffffffffffffffffffffffffffffffffffffffff021916908373ffffffffffffffffffffffffffffffffffffffff1602179055508173ffffffffffffffffffffffffffffffffffffffff168173ffffffffffffffffffffffffffffffffffffffff167f8be0079c531659141344cd1fd0a4f28419497f9722a3daafe3b4186f6b6457e060405160405180910390a35050565b6116ff8061010d6000396000f3fe608060405234801561001057600080fd5b50600436106100935760003560e01c8063715018a611610066578063715018a6146101305780638da5cb5b1461013a578063bcdb446b14610158578063f2fde38b14610162578063f8b2cb4f1461017e57610093565b8063068e7ca11461009857806316114acd146100c85780631aa51318146100e457806343cf6f2414610100575b600080fd5b6100b260048036038101906100ad9190610f72565b6101ae565b6040516100bf91906112b6565b60405180910390f35b6100e260048036038101906100dd9190610f45565b6101dd565b005b6100fe60048036038101906100f99190610f72565b610378565b005b61011a60048036038101906101159190610fed565b61069e565b60405161012791906112b6565b60405180910390f35b610138610854565b005b6101426108dc565b60405161014f9190611212565b60405180910390f35b610160610905565b005b61017c60048036038101906101779190610f45565b6109ca565b005b61019860048036038101906101939190610f45565b610ac2565b6040516101a591906112b6565b60405180910390f35b6000806101bd8786868661069e565b905060006101cd8786888561069e565b9050809250505095945050505050565b6101e5610b59565b73ffffffffffffffffffffffffffffffffffffffff166102036108dc565b73ffffffffffffffffffffffffffffffffffffffff1614610259576040517f08c379a000000000000000000000000000000000000000000000000000000000815260040161025090611296565b60405180910390fd5b60008190508073ffffffffffffffffffffffffffffffffffffffff1663a9059cbb338373ffffffffffffffffffffffffffffffffffffffff166370a08231306040518263ffffffff1660e01b81526004016102b49190611212565b60206040518083038186803b1580156102cc57600080fd5b505afa1580156102e0573d6000803e3d6000fd5b505050506040513d601f19601f8201168201806040525081019061030491906110ca565b6040518363ffffffff1660e01b815260040161032192919061122d565b602060405180830381600087803b15801561033b57600080fd5b505af115801561034f573d6000803e3d6000fd5b505050506040513d601f19601f82011682018060405250810190610373919061109d565b505050565b610380610b59565b73ffffffffffffffffffffffffffffffffffffffff1661039e6108dc565b73ffffffffffffffffffffffffffffffffffffffff16146103f4576040517f08c379a00000000000000000000000000000000000000000000000000000000081526004016103eb90611296565b60405180910390fd5b60008373ffffffffffffffffffffffffffffffffffffffff166370a08231306040518263ffffffff1660e01b815260040161042f9190611212565b60206040518083038186803b15801561044757600080fd5b505afa15801561045b573d6000803e3d6000fd5b505050506040513d601f19601f8201168201806040525081019061047f91906110ca565b905060008373ffffffffffffffffffffffffffffffffffffffff166370a08231306040518263ffffffff1660e01b81526004016104bc9190611212565b60206040518083038186803b1580156104d457600080fd5b505afa1580156104e8573d6000803e3d6000fd5b505050506040513d601f19601f8201168201806040525081019061050c91906110ca565b905061051a87868686610b61565b60008473ffffffffffffffffffffffffffffffffffffffff166370a08231306040518263ffffffff1660e01b81526004016105559190611212565b60206040518083038186803b15801561056d57600080fd5b505afa158015610581573d6000803e3d6000fd5b505050506040513d601f19601f820116820180604052508101906105a591906110ca565b9050600082826105b5919061144c565b90506105c388878984610b61565b60008773ffffffffffffffffffffffffffffffffffffffff166370a08231306040518263ffffffff1660e01b81526004016105fe9190611212565b60206040518083038186803b15801561061657600080fd5b505afa15801561062a573d6000803e3d6000fd5b505050506040513d601f19601f8201168201806040525081019061064e91906110ca565b9050848111610692576040517f08c379a000000000000000000000000000000000000000000000000000000000815260040161068990611256565b60405180910390fd5b50505050505050505050565b60006060600267ffffffffffffffff8111156106bd576106bc611569565b5b6040519080825280602002602001820160405280156106eb5781602001602082028036833780820191505090505b50905084816000815181106107035761070261153a565b5b602002602001019073ffffffffffffffffffffffffffffffffffffffff16908173ffffffffffffffffffffffffffffffffffffffff168152505083816001815181106107525761075161153a565b5b602002602001019073ffffffffffffffffffffffffffffffffffffffff16908173ffffffffffffffffffffffffffffffffffffffff168152505060008673ffffffffffffffffffffffffffffffffffffffff1663d06ca61f85846040518363ffffffff1660e01b81526004016107c99291906112d1565b60006040518083038186803b1580156107e157600080fd5b505afa1580156107f5573d6000803e3d6000fd5b505050506040513d6000823e3d601f19601f8201168201806040525081019061081e9190611054565b9050806001835161082f919061144c565b815181106108405761083f61153a565b5b602002602001015192505050949350505050565b61085c610b59565b73ffffffffffffffffffffffffffffffffffffffff1661087a6108dc565b73ffffffffffffffffffffffffffffffffffffffff16146108d0576040517f08c379a00000000000000000000000000000000000000000000000000000000081526004016108c790611296565b60405180910390fd5b6108da6000610d8f565b565b60008060009054906101000a900473ffffffffffffffffffffffffffffffffffffffff16905090565b61090d610b59565b73ffffffffffffffffffffffffffffffffffffffff1661092b6108dc565b73ffffffffffffffffffffffffffffffffffffffff1614610981576040517f08c379a000000000000000000000000000000000000000000000000000000000815260040161097890611296565b60405180910390fd5b3373ffffffffffffffffffffffffffffffffffffffff166108fc479081150290604051600060405180830381858888f193505050501580156109c7573d6000803e3d6000fd5b50565b6109d2610b59565b73ffffffffffffffffffffffffffffffffffffffff166109f06108dc565b73ffffffffffffffffffffffffffffffffffffffff1614610a46576040517f08c379a0000000000000000000000000000000000000000000000000000000008152600401610a3d90611296565b60405180910390fd5b600073ffffffffffffffffffffffffffffffffffffffff168173ffffffffffffffffffffffffffffffffffffffff161415610ab6576040517f08c379a0000000000000000000000000000000000000000000000000000000008152600401610aad90611276565b60405180910390fd5b610abf81610d8f565b50565b6000808273ffffffffffffffffffffffffffffffffffffffff166370a08231306040518263ffffffff1660e01b8152600401610afe9190611212565b60206040518083038186803b158015610b1657600080fd5b505afa158015610b2a573d6000803e3d6000fd5b505050506040513d601f19601f82011682018060405250810190610b4e91906110ca565b905080915050919050565b600033905090565b8273ffffffffffffffffffffffffffffffffffffffff1663095ea7b385836040518363ffffffff1660e01b8152600401610b9c92919061122d565b602060405180830381600087803b158015610bb657600080fd5b505af1158015610bca573d6000803e3d6000fd5b505050506040513d601f19601f82011682018060405250810190610bee919061109d565b506060600267ffffffffffffffff811115610c0c57610c0b611569565b5b604051908082528060200260200182016040528015610c3a5781602001602082028036833780820191505090505b5090508381600081518110610c5257610c5161153a565b5b602002602001019073ffffffffffffffffffffffffffffffffffffffff16908173ffffffffffffffffffffffffffffffffffffffff16815250508281600181518110610ca157610ca061153a565b5b602002602001019073ffffffffffffffffffffffffffffffffffffffff16908173ffffffffffffffffffffffffffffffffffffffff1681525050600061012c42610ceb91906113f6565b90508573ffffffffffffffffffffffffffffffffffffffff166338ed17398460018530866040518663ffffffff1660e01b8152600401610d2f959493929190611301565b600060405180830381600087803b158015610d4957600080fd5b505af1158015610d5d573d6000803e3d6000fd5b505050506040513d6000823e3d601f19601f82011682018060405250810190610d869190611054565b50505050505050565b60008060009054906101000a900473ffffffffffffffffffffffffffffffffffffffff169050816000806101000a81548173ffffffffffffffffffffffffffffffffffffffff021916908373ffffffffffffffffffffffffffffffffffffffff1602179055508173ffffffffffffffffffffffffffffffffffffffff168173ffffffffffffffffffffffffffffffffffffffff167f8be0079c531659141344cd1fd0a4f28419497f9722a3daafe3b4186f6b6457e060405160405180910390a35050565b6000610e66610e6184611380565b61135b565b90508083825260208201905082856020860282011115610e8957610e8861159d565b5b60005b85811015610eb95781610e9f8882610f30565b845260208401935060208301925050600181019050610e8c565b5050509392505050565b600081359050610ed281611684565b92915050565b600082601f830112610eed57610eec611598565b5b8151610efd848260208601610e53565b91505092915050565b600081519050610f158161169b565b92915050565b600081359050610f2a816116b2565b92915050565b600081519050610f3f816116b2565b92915050565b600060208284031215610f5b57610f5a6115a7565b5b6000610f6984828501610ec3565b91505092915050565b600080600080600060a08688031215610f8e57610f8d6115a7565b5b6000610f9c88828901610ec3565b9550506020610fad88828901610ec3565b9450506040610fbe88828901610ec3565b9350506060610fcf88828901610ec3565b9250506080610fe088828901610f1b565b9150509295509295909350565b60008060008060808587031215611007576110066115a7565b5b600061101587828801610ec3565b945050602061102687828801610ec3565b935050604061103787828801610ec3565b925050606061104887828801610f1b565b91505092959194509250565b60006020828403121561106a576110696115a7565b5b600082015167ffffffffffffffff811115611088576110876115a2565b5b61109484828501610ed8565b91505092915050565b6000602082840312156110b3576110b26115a7565b5b60006110c184828501610f06565b91505092915050565b6000602082840312156110e0576110df6115a7565b5b60006110ee84828501610f30565b91505092915050565b6000611103838361110f565b60208301905092915050565b61111881611480565b82525050565b61112781611480565b82525050565b6000611138826113bc565b61114281856113d4565b935061114d836113ac565b8060005b8381101561117e57815161116588826110f7565b9750611170836113c7565b925050600181019050611151565b5085935050505092915050565b611194816114c8565b82525050565b60006111a76028836113e5565b91506111b2826115bd565b604082019050919050565b60006111ca6026836113e5565b91506111d58261160c565b604082019050919050565b60006111ed6020836113e5565b91506111f88261165b565b602082019050919050565b61120c816114be565b82525050565b6000602082019050611227600083018461111e565b92915050565b6000604082019050611242600083018561111e565b61124f6020830184611203565b9392505050565b6000602082019050818103600083015261126f8161119a565b9050919050565b6000602082019050818103600083015261128f816111bd565b9050919050565b600060208201905081810360008301526112af816111e0565b9050919050565b60006020820190506112cb6000830184611203565b92915050565b60006040820190506112e66000830185611203565b81810360208301526112f8818461112d565b90509392505050565b600060a0820190506113166000830188611203565b611323602083018761118b565b8181036040830152611335818661112d565b9050611344606083018561111e565b6113516080830184611203565b9695505050505050565b6000611365611376565b905061137182826114da565b919050565b6000604051905090565b600067ffffffffffffffff82111561139b5761139a611569565b5b602082029050602081019050919050565b6000819050602082019050919050565b600081519050919050565b6000602082019050919050565b600082825260208201905092915050565b600082825260208201905092915050565b6000611401826114be565b915061140c836114be565b9250827fffffffffffffffffffffffffffffffffffffffffffffffffffffffffffffffff038211156114415761144061150b565b5b828201905092915050565b6000611457826114be565b9150611462836114be565b9250828210156114755761147461150b565b5b828203905092915050565b600061148b8261149e565b9050919050565b60008115159050919050565b600073ffffffffffffffffffffffffffffffffffffffff82169050919050565b6000819050919050565b60006114d3826114be565b9050919050565b6114e3826115ac565b810181811067ffffffffffffffff8211171561150257611501611569565b5b80604052505050565b7f4e487b7100000000000000000000000000000000000000000000000000000000600052601160045260246000fd5b7f4e487b7100000000000000000000000000000000000000000000000000000000600052603260045260246000fd5b7f4e487b7100000000000000000000000000000000000000000000000000000000600052604160045260246000fd5b600080fd5b600080fd5b600080fd5b600080fd5b6000601f19601f8301169050919050565b7f547261646520526576657274656421204e6f2070726f66697420636f756c642060008201527f6265206d6164652e000000000000000000000000000000000000000000000000602082015250565b7f4f776e61626c653a206e6577206f776e657220697320746865207a65726f206160008201527f6464726573730000000000000000000000000000000000000000000000000000602082015250565b7f4f776e61626c653a2063616c6c6572206973206e6f7420746865206f776e6572600082015250565b61168d81611480565b811461169857600080fd5b50565b6116a481611492565b81146116af57600080fd5b50565b6116bb816114be565b81146116c657600080fd5b5056fea26469706673582212203dd7668b3054d6aa505dae87e8268e71c33d60606aa791798d072268b72ed5f064736f6c63430008070033",
  "linkReferences": {},
  "deployedLinkReferences": {}
}